{
  "_format": "hh-sol-artifact-1",
  "contractName": "CollectionFactory",
  "sourceName": "contracts/CollectionFactory.sol",
  "abi": [
    {
      "inputs": [],
      "stateMutability": "nonpayable",
      "type": "constructor"
    },
    {
      "inputs": [],
      "name": "InvalidMaxSupply",
      "type": "error"
    },
    {
      "inputs": [],
      "name": "InvalidRoyaltyPercentage",
      "type": "error"
    },
    {
      "anonymous": false,
      "inputs": [
        {
          "indexed": true,
          "internalType": "address",
          "name": "collectionAddress",
          "type": "address"
        },
        {
          "indexed": true,
          "internalType": "address",
          "name": "creator",
          "type": "address"
        },
        {
          "indexed": false,
          "internalType": "string",
          "name": "name",
          "type": "string"
        },
        {
          "indexed": false,
          "internalType": "string",
          "name": "symbol",
          "type": "string"
        },
        {
          "indexed": false,
          "internalType": "uint256",
          "name": "maxSupply",
          "type": "uint256"
        }
      ],
      "name": "CollectionCreated",
      "type": "event"
    },
    {
      "inputs": [],
      "name": "collectionImplementation",
      "outputs": [
        {
          "internalType": "address",
          "name": "",
          "type": "address"
        }
      ],
      "stateMutability": "view",
      "type": "function"
    },
    {
      "inputs": [
        {
          "internalType": "string",
          "name": "name_",
          "type": "string"
        },
        {
          "internalType": "string",
          "name": "symbol_",
          "type": "string"
        },
        {
          "internalType": "string",
          "name": "baseURI_",
          "type": "string"
        },
        {
          "internalType": "uint256",
          "name": "maxSupply_",
          "type": "uint256"
        },
        {
          "internalType": "uint96",
          "name": "royaltyBps_",
          "type": "uint96"
        }
      ],
      "name": "createCollection",
      "outputs": [
        {
          "internalType": "address",
          "name": "collectionAddress",
          "type": "address"
        }
      ],
      "stateMutability": "nonpayable",
      "type": "function"
    },
    {
      "inputs": [],
      "name": "getAllCollections",
      "outputs": [
        {
          "internalType": "address[]",
          "name": "",
          "type": "address[]"
        }
      ],
      "stateMutability": "view",
      "type": "function"
    },
    {
      "inputs": [
        {
          "internalType": "address",
          "name": "creator",
          "type": "address"
        }
      ],
      "name": "getCollectionsByCreator",
      "outputs": [
        {
          "internalType": "address[]",
          "name": "",
          "type": "address[]"
        }
      ],
      "stateMutability": "view",
      "type": "function"
    },
    {
      "inputs": [
        {
          "internalType": "address",
          "name": "creator",
          "type": "address"
        }
      ],
      "name": "getCreatorCollectionCount",
      "outputs": [
        {
          "internalType": "uint256",
          "name": "",
          "type": "uint256"
        }
      ],
      "stateMutability": "view",
      "type": "function"
    },
    {
      "inputs": [],
      "name": "getTotalCollections",
      "outputs": [
        {
          "internalType": "uint256",
          "name": "",
          "type": "uint256"
        }
      ],
      "stateMutability": "view",
      "type": "function"
    }
  ],
  "bytecode": "0x60a060405234801561001057600080fd5b506001600030604051610022906100ca565b60c0808252600e908201526d24b6b83632b6b2b73a30ba34b7b760911b60e082015261010060208201819052600490820152631253541360e21b6101208201526101406040820181905260009082015260608101939093526001600160601b0390911660808301526001600160a01b031660a082015261016001604051809103906000f0801580156100b8573d6000803e3d6000fd5b506001600160a01b03166080526100d7565b611be08061236283390190565b6080516122716100f16000396000607501526122716000f3fe60806040523480156200001157600080fd5b50600436106200006a5760003560e01c80630f3b901f146200006f5780634cccaa4614620000b45780636804a95814620000cb578063939bf6dd14620000e4578063a3f3bc7214620000f7578063f56b83691462000123575b600080fd5b620000977f000000000000000000000000000000000000000000000000000000000000000081565b6040516001600160a01b0390911681526020015b60405180910390f35b62000097620000c53660046200042a565b6200013a565b620000d562000297565b604051620000ab9190620004e8565b6001545b604051908152602001620000ab565b620000e86200010836600462000537565b6001600160a01b031660009081526020819052604090205490565b620000d56200013436600462000537565b620002fb565b60006103e8826001600160601b03161115620001695760405163134aed6960e21b815260040160405180910390fd5b826000036200018b5760405163066f305360e21b815260040160405180910390fd5b6000868686868633604051620001a19062000371565b620001b296959493929190620005b1565b604051809103906000f080158015620001cf573d6000803e3d6000fd5b503360008181526020818152604080832080546001818101835591855292842090920180546001600160a01b0387166001600160a01b0319918216811790925583548085018555939094527fb10e2d527612073b26eecdfd717e6a320cf44b4afac2b0732d9fcbe2b7fa0cf690920180549093168217909255905192945084935090917f7697d6df79350f3236f33512b2cff1f0c0d6c9fc7466cc4723189d4618e9fd529062000285908b908b908a9062000621565b60405180910390a35095945050505050565b60606001805480602002602001604051908101604052809291908181526020018280548015620002f157602002820191906000526020600020905b81546001600160a01b03168152600190910190602001808311620002d2575b5050505050905090565b6001600160a01b038116600090815260208181526040918290208054835181840281018401909452808452606093928301828280156200036557602002820191906000526020600020905b81546001600160a01b0316815260019091019060200180831162000346575b50505050509050919050565b611be0806200065c83390190565b634e487b7160e01b600052604160045260246000fd5b600082601f830112620003a757600080fd5b813567ffffffffffffffff80821115620003c557620003c56200037f565b604051601f8301601f19908116603f01168101908282118183101715620003f057620003f06200037f565b816040528381528660208588010111156200040a57600080fd5b836020870160208301376000602085830101528094505050505092915050565b600080600080600060a086880312156200044357600080fd5b853567ffffffffffffffff808211156200045c57600080fd5b6200046a89838a0162000395565b965060208801359150808211156200048157600080fd5b6200048f89838a0162000395565b95506040880135915080821115620004a657600080fd5b50620004b58882890162000395565b9350506060860135915060808601356001600160601b0381168114620004da57600080fd5b809150509295509295909350565b6020808252825182820181905260009190848201906040850190845b818110156200052b5783516001600160a01b03168352928401929184019160010162000504565b50909695505050505050565b6000602082840312156200054a57600080fd5b81356001600160a01b03811681146200056257600080fd5b9392505050565b6000815180845260005b81811015620005915760208185018101518683018201520162000573565b506000602082860101526020601f19601f83011685010191505092915050565b60c081526000620005c660c083018962000569565b8281036020840152620005da818962000569565b90508281036040840152620005f0818862000569565b606084019690965250506001600160601b039290921660808301526001600160a01b031660a0909101529392505050565b60608152600062000636606083018662000569565b82810360208401526200064a818662000569565b91505082604083015294935050505056fe60a06040523480156200001157600080fd5b5060405162001be038038062001be08339810160408190526200003491620002cc565b808686600062000045838262000429565b50600162000054828262000429565b5050506001600160a01b0381166200008757604051631e4fbdf760e01b8152600060048201526024015b60405180910390fd5b6200009281620000f1565b506103e8826001600160601b03161115620000c05760405163134aed6960e21b815260040160405180910390fd5b6009620000ce858262000429565b5060808390526000600a55620000e5818362000143565b505050505050620004f5565b600680546001600160a01b038381166001600160a01b0319831681179093556040519116919082907f8be0079c531659141344cd1fd0a4f28419497f9722a3daafe3b4186f6b6457e090600090a35050565b6127106001600160601b0382168110156200018457604051636f483d0960e01b81526001600160601b0383166004820152602481018290526044016200007e565b6001600160a01b038316620001b057604051635b6cc80560e11b8152600060048201526024016200007e565b50604080518082019091526001600160a01b039092168083526001600160601b039091166020909201829052600160a01b90910217600755565b634e487b7160e01b600052604160045260246000fd5b600082601f8301126200021257600080fd5b81516001600160401b03808211156200022f576200022f620001ea565b604051601f8301601f19908116603f011681019082821181831017156200025a576200025a620001ea565b816040528381526020925086838588010111156200027757600080fd5b600091505b838210156200029b57858201830151818301840152908201906200027c565b600093810190920192909252949350505050565b80516001600160a01b0381168114620002c757600080fd5b919050565b60008060008060008060c08789031215620002e657600080fd5b86516001600160401b0380821115620002fe57600080fd5b6200030c8a838b0162000200565b975060208901519150808211156200032357600080fd5b620003318a838b0162000200565b965060408901519150808211156200034857600080fd5b506200035789828a0162000200565b606089015160808a0151919650945090506001600160601b03811681146200037e57600080fd5b91506200038e60a08801620002af565b90509295509295509295565b600181811c90821680620003af57607f821691505b602082108103620003d057634e487b7160e01b600052602260045260246000fd5b50919050565b601f8211156200042457600081815260208120601f850160051c81016020861015620003ff5750805b601f850160051c820191505b8181101562000420578281556001016200040b565b5050505b505050565b81516001600160401b03811115620004455762000445620001ea565b6200045d816200045684546200039a565b84620003d6565b602080601f8311600181146200049557600084156200047c5750858301515b600019600386901b1c1916600185901b17855562000420565b600085815260208120601f198616915b82811015620004c657888601518255948401946001909101908401620004a5565b5085821015620004e55787850151600019600388901b60f8161c191681555b5050505050600190811b01905550565b6080516116c862000518600039600081816102f101526105b201526116c86000f3fe608060405234801561001057600080fd5b50600436106101425760003560e01c80636352211e116100b8578063a22cb4651161007c578063a22cb465146102b3578063b88d4fde146102c6578063c87b56dd146102d9578063d5abeb01146102ec578063e985e9c514610313578063f2fde38b1461032657600080fd5b80636352211e1461026c57806370a082311461027f578063715018a6146102925780638da5cb5b1461029a57806395d89b41146102ab57600080fd5b806318160ddd1161010a57806318160ddd146101d757806323b872dd146101ee5780632a55205a1461020157806342842e0e1461023357806343508b051461024657806355f804b31461025957600080fd5b806301ffc9a71461014757806304634d8d1461016f57806306fdde0314610184578063081812fc14610199578063095ea7b3146101c4575b600080fd5b61015a6101553660046110ee565b610339565b60405190151581526020015b60405180910390f35b61018261017d366004611127565b61034a565b005b61018c61038c565b60405161016691906111ba565b6101ac6101a73660046111cd565b61041e565b6040516001600160a01b039091168152602001610166565b6101826101d23660046111e6565b610447565b6101e0600a5481565b604051908152602001610166565b6101826101fc366004611210565b610452565b61021461020f36600461124c565b6104e2565b604080516001600160a01b039093168352602083019190915201610166565b610182610241366004611210565b610567565b6101826102543660046111e6565b610587565b6101826102673660046112fa565b61069b565b6101ac61027a3660046111cd565b6106ea565b6101e061028d366004611343565b6106f5565b61018261073d565b6006546001600160a01b03166101ac565b61018c610751565b6101826102c136600461135e565b610760565b6101826102d436600461138f565b61076b565b61018c6102e73660046111cd565b610783565b6101e07f000000000000000000000000000000000000000000000000000000000000000081565b61015a61032136600461140b565b6107eb565b610182610334366004611343565b610819565b600061034482610857565b92915050565b61035261087c565b6103e8816001600160601b0316111561037e5760405163134aed6960e21b815260040160405180910390fd5b61038882826108a9565b5050565b60606000805461039b9061143e565b80601f01602080910402602001604051908101604052809291908181526020018280546103c79061143e565b80156104145780601f106103e957610100808354040283529160200191610414565b820191906000526020600020905b8154815290600101906020018083116103f757829003601f168201915b5050505050905090565b60006104298261094c565b506000828152600460205260409020546001600160a01b0316610344565b610388828233610985565b6001600160a01b03821661048157604051633250574960e11b8152600060048201526024015b60405180910390fd5b600061048e838333610992565b9050836001600160a01b0316816001600160a01b0316146104dc576040516364283d7b60e01b81526001600160a01b0380861660048301526024820184905282166044820152606401610478565b50505050565b600082815260086020526040812080548291906001600160a01b03811690600160a01b90046001600160601b0316816105365750506007546001600160a01b03811690600160a01b90046001600160601b03165b600061271061054e6001600160601b0384168961148e565b61055891906114a5565b92989297509195505050505050565b6105828383836040518060200160405280600081525061076b565b505050565b61058f61087c565b806000036105b05760405163524f409b60e01b815260040160405180910390fd5b7f000000000000000000000000000000000000000000000000000000000000000081600a546105df91906114c7565b11156105fe57604051638a164f6360e01b815260040160405180910390fd5b6000600a54600161060f91906114c7565b905060005b8281101561065157600a805490600061062c836114da565b9091555050600a5461063e8582610a8b565b5080610649816114da565b915050610614565b5060408051838152602081018390526001600160a01b038516917f59f9fb6d992d2aee0ed338bb4c504a17fd3f67ae91a3135bc2ef947e308c41b2910160405180910390a2505050565b6106a361087c565b60096106af8282611539565b507f6741b2fc379fad678116fe3d4d4b9a1a184ab53ba36b86ad0fa66340b1ab41ad816040516106df91906111ba565b60405180910390a150565b60006103448261094c565b60006001600160a01b038216610721576040516322718ad960e21b815260006004820152602401610478565b506001600160a01b031660009081526003602052604090205490565b61074561087c565b61074f6000610aa5565b565b60606001805461039b9061143e565b610388338383610af7565b610776848484610452565b6104dc3385858585610b96565b606061078e8261094c565b506000610799610cc1565b905060008151116107b957604051806020016040528060008152506107e4565b806107c384610cd0565b6040516020016107d49291906115f9565b6040516020818303038152906040525b9392505050565b6001600160a01b03918216600090815260056020908152604080832093909416825291909152205460ff1690565b61082161087c565b6001600160a01b03811661084b57604051631e4fbdf760e01b815260006004820152602401610478565b61085481610aa5565b50565b60006001600160e01b0319821663152a902d60e11b1480610344575061034482610d63565b6006546001600160a01b0316331461074f5760405163118cdaa760e01b8152336004820152602401610478565b6127106001600160601b0382168110156108e857604051636f483d0960e01b81526001600160601b038316600482015260248101829052604401610478565b6001600160a01b03831661091257604051635b6cc80560e11b815260006004820152602401610478565b50604080518082019091526001600160a01b039092168083526001600160601b039091166020909201829052600160a01b90910217600755565b6000818152600260205260408120546001600160a01b03168061034457604051637e27328960e01b815260048101849052602401610478565b6105828383836001610db3565b6000828152600260205260408120546001600160a01b03908116908316156109bf576109bf818486610eb9565b6001600160a01b038116156109fd576109dc600085600080610db3565b6001600160a01b038116600090815260036020526040902080546000190190555b6001600160a01b03851615610a2c576001600160a01b0385166000908152600360205260409020805460010190555b60008481526002602052604080822080546001600160a01b0319166001600160a01b0389811691821790925591518793918516917fddf252ad1be2c89b69c2b068fc378daa952ba7f163c4a11628f55a4df523b3ef91a4949350505050565b610388828260405180602001604052806000815250610f1d565b600680546001600160a01b038381166001600160a01b0319831681179093556040519116919082907f8be0079c531659141344cd1fd0a4f28419497f9722a3daafe3b4186f6b6457e090600090a35050565b6001600160a01b038216610b2957604051630b61174360e31b81526001600160a01b0383166004820152602401610478565b6001600160a01b03838116600081815260056020908152604080832094871680845294825291829020805460ff191686151590811790915591519182527f17307eab39ab6107e8899845ad3d59bd9653f200f220920489ca2b5937696c31910160405180910390a3505050565b6001600160a01b0383163b15610cba57604051630a85bd0160e11b81526001600160a01b0384169063150b7a0290610bd8908890889087908790600401611638565b6020604051808303816000875af1925050508015610c13575060408051601f3d908101601f19168201909252610c1091810190611675565b60015b610c7c573d808015610c41576040519150601f19603f3d011682016040523d82523d6000602084013e610c46565b606091505b508051600003610c7457604051633250574960e11b81526001600160a01b0385166004820152602401610478565b805160208201fd5b6001600160e01b03198116630a85bd0160e11b14610cb857604051633250574960e11b81526001600160a01b0385166004820152602401610478565b505b5050505050565b60606009805461039b9061143e565b60606000610cdd83610f35565b600101905060008167ffffffffffffffff811115610cfd57610cfd61126e565b6040519080825280601f01601f191660200182016040528015610d27576020820181803683370190505b5090508181016020015b600019016f181899199a1a9b1b9c1cb0b131b232b360811b600a86061a8153600a8504945084610d3157509392505050565b60006001600160e01b031982166380ac58cd60e01b1480610d9457506001600160e01b03198216635b5e139f60e01b145b8061034457506301ffc9a760e01b6001600160e01b0319831614610344565b8080610dc757506001600160a01b03821615155b15610e89576000610dd78461094c565b90506001600160a01b03831615801590610e035750826001600160a01b0316816001600160a01b031614155b8015610e165750610e1481846107eb565b155b15610e3f5760405163a9fbf51f60e01b81526001600160a01b0384166004820152602401610478565b8115610e875783856001600160a01b0316826001600160a01b03167f8c5be1e5ebec7d5bd14f71427d1e84f3dd0314c0f7b2291e5b200ac8c7c3b92560405160405180910390a45b505b5050600090815260046020526040902080546001600160a01b0319166001600160a01b0392909216919091179055565b610ec483838361100d565b610582576001600160a01b038316610ef257604051637e27328960e01b815260048101829052602401610478565b60405163177e802f60e01b81526001600160a01b038316600482015260248101829052604401610478565b610f278383611073565b610582336000858585610b96565b60008072184f03e93ff9f4daa797ed6e38ed64bf6a1f0160401b8310610f745772184f03e93ff9f4daa797ed6e38ed64bf6a1f0160401b830492506040015b6d04ee2d6d415b85acef81000000008310610fa0576d04ee2d6d415b85acef8100000000830492506020015b662386f26fc100008310610fbe57662386f26fc10000830492506010015b6305f5e1008310610fd6576305f5e100830492506008015b6127108310610fea57612710830492506004015b60648310610ffc576064830492506002015b600a83106103445760010192915050565b60006001600160a01b0383161580159061106b5750826001600160a01b0316846001600160a01b03161480611047575061104784846107eb565b8061106b57506000828152600460205260409020546001600160a01b038481169116145b949350505050565b6001600160a01b03821661109d57604051633250574960e11b815260006004820152602401610478565b60006110ab83836000610992565b90506001600160a01b03811615610582576040516339e3563760e11b815260006004820152602401610478565b6001600160e01b03198116811461085457600080fd5b60006020828403121561110057600080fd5b81356107e4816110d8565b80356001600160a01b038116811461112257600080fd5b919050565b6000806040838503121561113a57600080fd5b6111438361110b565b915060208301356001600160601b038116811461115f57600080fd5b809150509250929050565b60005b8381101561118557818101518382015260200161116d565b50506000910152565b600081518084526111a681602086016020860161116a565b601f01601f19169290920160200192915050565b6020815260006107e4602083018461118e565b6000602082840312156111df57600080fd5b5035919050565b600080604083850312156111f957600080fd5b6112028361110b565b946020939093013593505050565b60008060006060848603121561122557600080fd5b61122e8461110b565b925061123c6020850161110b565b9150604084013590509250925092565b6000806040838503121561125f57600080fd5b50508035926020909101359150565b634e487b7160e01b600052604160045260246000fd5b600067ffffffffffffffff8084111561129f5761129f61126e565b604051601f8501601f19908116603f011681019082821181831017156112c7576112c761126e565b816040528093508581528686860111156112e057600080fd5b858560208301376000602087830101525050509392505050565b60006020828403121561130c57600080fd5b813567ffffffffffffffff81111561132357600080fd5b8201601f8101841361133457600080fd5b61106b84823560208401611284565b60006020828403121561135557600080fd5b6107e48261110b565b6000806040838503121561137157600080fd5b61137a8361110b565b91506020830135801515811461115f57600080fd5b600080600080608085870312156113a557600080fd5b6113ae8561110b565b93506113bc6020860161110b565b925060408501359150606085013567ffffffffffffffff8111156113df57600080fd5b8501601f810187136113f057600080fd5b6113ff87823560208401611284565b91505092959194509250565b6000806040838503121561141e57600080fd5b6114278361110b565b91506114356020840161110b565b90509250929050565b600181811c9082168061145257607f821691505b60208210810361147257634e487b7160e01b600052602260045260246000fd5b50919050565b634e487b7160e01b600052601160045260246000fd5b808202811582820484141761034457610344611478565b6000826114c257634e487b7160e01b600052601260045260246000fd5b500490565b8082018082111561034457610344611478565b6000600182016114ec576114ec611478565b5060010190565b601f82111561058257600081815260208120601f850160051c8101602086101561151a5750805b601f850160051c820191505b81811015610cb857828155600101611526565b815167ffffffffffffffff8111156115535761155361126e565b61156781611561845461143e565b846114f3565b602080601f83116001811461159c57600084156115845750858301515b600019600386901b1c1916600185901b178555610cb8565b600085815260208120601f198616915b828110156115cb578886015182559484019460019091019084016115ac565b50858210156115e95787850151600019600388901b60f8161c191681555b5050505050600190811b01905550565b6000835161160b81846020880161116a565b83519083019061161f81836020880161116a565b64173539b7b760d91b9101908152600501949350505050565b6001600160a01b038581168252841660208201526040810183905260806060820181905260009061166b9083018461118e565b9695505050505050565b60006020828403121561168757600080fd5b81516107e4816110d856fea26469706673582212204f5255b83c912936c8592348ba67d9bdb9d802f9c3087e6c27c4bbdb107fcf9964736f6c63430008140033a26469706673582212209b4777f68024bb3abe030408616533e7285ee1fa7e0652f260e9e1571943d88364736f6c6343000814003360a06040523480156200001157600080fd5b5060405162001be038038062001be08339810160408190526200003491620002cc565b808686600062000045838262000429565b50600162000054828262000429565b5050506001600160a01b0381166200008757604051631e4fbdf760e01b8152600060048201526024015b60405180910390fd5b6200009281620000f1565b506103e8826001600160601b03161115620000c05760405163134aed6960e21b815260040160405180910390fd5b6009620000ce858262000429565b5060808390526000600a55620000e5818362000143565b505050505050620004f5565b600680546001600160a01b038381166001600160a01b0319831681179093556040519116919082907f8be0079c531659141344cd1fd0a4f28419497f9722a3daafe3b4186f6b6457e090600090a35050565b6127106001600160601b0382168110156200018457604051636f483d0960e01b81526001600160601b0383166004820152602481018290526044016200007e565b6001600160a01b038316620001b057604051635b6cc80560e11b8152600060048201526024016200007e565b50604080518082019091526001600160a01b039092168083526001600160601b039091166020909201829052600160a01b90910217600755565b634e487b7160e01b600052604160045260246000fd5b600082601f8301126200021257600080fd5b81516001600160401b03808211156200022f576200022f620001ea565b604051601f8301601f19908116603f011681019082821181831017156200025a576200025a620001ea565b816040528381526020925086838588010111156200027757600080fd5b600091505b838210156200029b57858201830151818301840152908201906200027c565b600093810190920192909252949350505050565b80516001600160a01b0381168114620002c757600080fd5b919050565b60008060008060008060c08789031215620002e657600080fd5b86516001600160401b0380821115620002fe57600080fd5b6200030c8a838b0162000200565b975060208901519150808211156200032357600080fd5b620003318a838b0162000200565b965060408901519150808211156200034857600080fd5b506200035789828a0162000200565b606089015160808a0151919650945090506001600160601b03811681146200037e57600080fd5b91506200038e60a08801620002af565b90509295509295509295565b600181811c90821680620003af57607f821691505b602082108103620003d057634e487b7160e01b600052602260045260246000fd5b50919050565b601f8211156200042457600081815260208120601f850160051c81016020861015620003ff5750805b601f850160051c820191505b8181101562000420578281556001016200040b565b5050505b505050565b81516001600160401b03811115620004455762000445620001ea565b6200045d816200045684546200039a565b84620003d6565b602080601f8311600181146200049557600084156200047c5750858301515b600019600386901b1c1916600185901b17855562000420565b600085815260208120601f198616915b82811015620004c657888601518255948401946001909101908401620004a5565b5085821015620004e55787850151600019600388901b60f8161c191681555b5050505050600190811b01905550565b6080516116c862000518600039600081816102f101526105b201526116c86000f3fe608060405234801561001057600080fd5b50600436106101425760003560e01c80636352211e116100b8578063a22cb4651161007c578063a22cb465146102b3578063b88d4fde146102c6578063c87b56dd146102d9578063d5abeb01146102ec578063e985e9c514610313578063f2fde38b1461032657600080fd5b80636352211e1461026c57806370a082311461027f578063715018a6146102925780638da5cb5b1461029a57806395d89b41146102ab57600080fd5b806318160ddd1161010a57806318160ddd146101d757806323b872dd146101ee5780632a55205a1461020157806342842e0e1461023357806343508b051461024657806355f804b31461025957600080fd5b806301ffc9a71461014757806304634d8d1461016f57806306fdde0314610184578063081812fc14610199578063095ea7b3146101c4575b600080fd5b61015a6101553660046110ee565b610339565b60405190151581526020015b60405180910390f35b61018261017d366004611127565b61034a565b005b61018c61038c565b60405161016691906111ba565b6101ac6101a73660046111cd565b61041e565b6040516001600160a01b039091168152602001610166565b6101826101d23660046111e6565b610447565b6101e0600a5481565b604051908152602001610166565b6101826101fc366004611210565b610452565b61021461020f36600461124c565b6104e2565b604080516001600160a01b039093168352602083019190915201610166565b610182610241366004611210565b610567565b6101826102543660046111e6565b610587565b6101826102673660046112fa565b61069b565b6101ac61027a3660046111cd565b6106ea565b6101e061028d366004611343565b6106f5565b61018261073d565b6006546001600160a01b03166101ac565b61018c610751565b6101826102c136600461135e565b610760565b6101826102d436600461138f565b61076b565b61018c6102e73660046111cd565b610783565b6101e07f000000000000000000000000000000000000000000000000000000000000000081565b61015a61032136600461140b565b6107eb565b610182610334366004611343565b610819565b600061034482610857565b92915050565b61035261087c565b6103e8816001600160601b0316111561037e5760405163134aed6960e21b815260040160405180910390fd5b61038882826108a9565b5050565b60606000805461039b9061143e565b80601f01602080910402602001604051908101604052809291908181526020018280546103c79061143e565b80156104145780601f106103e957610100808354040283529160200191610414565b820191906000526020600020905b8154815290600101906020018083116103f757829003601f168201915b5050505050905090565b60006104298261094c565b506000828152600460205260409020546001600160a01b0316610344565b610388828233610985565b6001600160a01b03821661048157604051633250574960e11b8152600060048201526024015b60405180910390fd5b600061048e838333610992565b9050836001600160a01b0316816001600160a01b0316146104dc576040516364283d7b60e01b81526001600160a01b0380861660048301526024820184905282166044820152606401610478565b50505050565b600082815260086020526040812080548291906001600160a01b03811690600160a01b90046001600160601b0316816105365750506007546001600160a01b03811690600160a01b90046001600160601b03165b600061271061054e6001600160601b0384168961148e565b61055891906114a5565b92989297509195505050505050565b6105828383836040518060200160405280600081525061076b565b505050565b61058f61087c565b806000036105b05760405163524f409b60e01b815260040160405180910390fd5b7f000000000000000000000000000000000000000000000000000000000000000081600a546105df91906114c7565b11156105fe57604051638a164f6360e01b815260040160405180910390fd5b6000600a54600161060f91906114c7565b905060005b8281101561065157600a805490600061062c836114da565b9091555050600a5461063e8582610a8b565b5080610649816114da565b915050610614565b5060408051838152602081018390526001600160a01b038516917f59f9fb6d992d2aee0ed338bb4c504a17fd3f67ae91a3135bc2ef947e308c41b2910160405180910390a2505050565b6106a361087c565b60096106af8282611539565b507f6741b2fc379fad678116fe3d4d4b9a1a184ab53ba36b86ad0fa66340b1ab41ad816040516106df91906111ba565b60405180910390a150565b60006103448261094c565b60006001600160a01b038216610721576040516322718ad960e21b815260006004820152602401610478565b506001600160a01b031660009081526003602052604090205490565b61074561087c565b61074f6000610aa5565b565b60606001805461039b9061143e565b610388338383610af7565b610776848484610452565b6104dc3385858585610b96565b606061078e8261094c565b506000610799610cc1565b905060008151116107b957604051806020016040528060008152506107e4565b806107c384610cd0565b6040516020016107d49291906115f9565b6040516020818303038152906040525b9392505050565b6001600160a01b03918216600090815260056020908152604080832093909416825291909152205460ff1690565b61082161087c565b6001600160a01b03811661084b57604051631e4fbdf760e01b815260006004820152602401610478565b61085481610aa5565b50565b60006001600160e01b0319821663152a902d60e11b1480610344575061034482610d63565b6006546001600160a01b0316331461074f5760405163118cdaa760e01b8152336004820152602401610478565b6127106001600160601b0382168110156108e857604051636f483d0960e01b81526001600160601b038316600482015260248101829052604401610478565b6001600160a01b03831661091257604051635b6cc80560e11b815260006004820152602401610478565b50604080518082019091526001600160a01b039092168083526001600160601b039091166020909201829052600160a01b90910217600755565b6000818152600260205260408120546001600160a01b03168061034457604051637e27328960e01b815260048101849052602401610478565b6105828383836001610db3565b6000828152600260205260408120546001600160a01b03908116908316156109bf576109bf818486610eb9565b6001600160a01b038116156109fd576109dc600085600080610db3565b6001600160a01b038116600090815260036020526040902080546000190190555b6001600160a01b03851615610a2c576001600160a01b0385166000908152600360205260409020805460010190555b60008481526002602052604080822080546001600160a01b0319166001600160a01b0389811691821790925591518793918516917fddf252ad1be2c89b69c2b068fc378daa952ba7f163c4a11628f55a4df523b3ef91a4949350505050565b610388828260405180602001604052806000815250610f1d565b600680546001600160a01b038381166001600160a01b0319831681179093556040519116919082907f8be0079c531659141344cd1fd0a4f28419497f9722a3daafe3b4186f6b6457e090600090a35050565b6001600160a01b038216610b2957604051630b61174360e31b81526001600160a01b0383166004820152602401610478565b6001600160a01b03838116600081815260056020908152604080832094871680845294825291829020805460ff191686151590811790915591519182527f17307eab39ab6107e8899845ad3d59bd9653f200f220920489ca2b5937696c31910160405180910390a3505050565b6001600160a01b0383163b15610cba57604051630a85bd0160e11b81526001600160a01b0384169063150b7a0290610bd8908890889087908790600401611638565b6020604051808303816000875af1925050508015610c13575060408051601f3d908101601f19168201909252610c1091810190611675565b60015b610c7c573d808015610c41576040519150601f19603f3d011682016040523d82523d6000602084013e610c46565b606091505b508051600003610c7457604051633250574960e11b81526001600160a01b0385166004820152602401610478565b805160208201fd5b6001600160e01b03198116630a85bd0160e11b14610cb857604051633250574960e11b81526001600160a01b0385166004820152602401610478565b505b5050505050565b60606009805461039b9061143e565b60606000610cdd83610f35565b600101905060008167ffffffffffffffff811115610cfd57610cfd61126e565b6040519080825280601f01601f191660200182016040528015610d27576020820181803683370190505b5090508181016020015b600019016f181899199a1a9b1b9c1cb0b131b232b360811b600a86061a8153600a8504945084610d3157509392505050565b60006001600160e01b031982166380ac58cd60e01b1480610d9457506001600160e01b03198216635b5e139f60e01b145b8061034457506301ffc9a760e01b6001600160e01b0319831614610344565b8080610dc757506001600160a01b03821615155b15610e89576000610dd78461094c565b90506001600160a01b03831615801590610e035750826001600160a01b0316816001600160a01b031614155b8015610e165750610e1481846107eb565b155b15610e3f5760405163a9fbf51f60e01b81526001600160a01b0384166004820152602401610478565b8115610e875783856001600160a01b0316826001600160a01b03167f8c5be1e5ebec7d5bd14f71427d1e84f3dd0314c0f7b2291e5b200ac8c7c3b92560405160405180910390a45b505b5050600090815260046020526040902080546001600160a01b0319166001600160a01b0392909216919091179055565b610ec483838361100d565b610582576001600160a01b038316610ef257604051637e27328960e01b815260048101829052602401610478565b60405163177e802f60e01b81526001600160a01b038316600482015260248101829052604401610478565b610f278383611073565b610582336000858585610b96565b60008072184f03e93ff9f4daa797ed6e38ed64bf6a1f0160401b8310610f745772184f03e93ff9f4daa797ed6e38ed64bf6a1f0160401b830492506040015b6d04ee2d6d415b85acef81000000008310610fa0576d04ee2d6d415b85acef8100000000830492506020015b662386f26fc100008310610fbe57662386f26fc10000830492506010015b6305f5e1008310610fd6576305f5e100830492506008015b6127108310610fea57612710830492506004015b60648310610ffc576064830492506002015b600a83106103445760010192915050565b60006001600160a01b0383161580159061106b5750826001600160a01b0316846001600160a01b03161480611047575061104784846107eb565b8061106b57506000828152600460205260409020546001600160a01b038481169116145b949350505050565b6001600160a01b03821661109d57604051633250574960e11b815260006004820152602401610478565b60006110ab83836000610992565b90506001600160a01b03811615610582576040516339e3563760e11b815260006004820152602401610478565b6001600160e01b03198116811461085457600080fd5b60006020828403121561110057600080fd5b81356107e4816110d8565b80356001600160a01b038116811461112257600080fd5b919050565b6000806040838503121561113a57600080fd5b6111438361110b565b915060208301356001600160601b038116811461115f57600080fd5b809150509250929050565b60005b8381101561118557818101518382015260200161116d565b50506000910152565b600081518084526111a681602086016020860161116a565b601f01601f19169290920160200192915050565b6020815260006107e4602083018461118e565b6000602082840312156111df57600080fd5b5035919050565b600080604083850312156111f957600080fd5b6112028361110b565b946020939093013593505050565b60008060006060848603121561122557600080fd5b61122e8461110b565b925061123c6020850161110b565b9150604084013590509250925092565b6000806040838503121561125f57600080fd5b50508035926020909101359150565b634e487b7160e01b600052604160045260246000fd5b600067ffffffffffffffff8084111561129f5761129f61126e565b604051601f8501601f19908116603f011681019082821181831017156112c7576112c761126e565b816040528093508581528686860111156112e057600080fd5b858560208301376000602087830101525050509392505050565b60006020828403121561130c57600080fd5b813567ffffffffffffffff81111561132357600080fd5b8201601f8101841361133457600080fd5b61106b84823560208401611284565b60006020828403121561135557600080fd5b6107e48261110b565b6000806040838503121561137157600080fd5b61137a8361110b565b91506020830135801515811461115f57600080fd5b600080600080608085870312156113a557600080fd5b6113ae8561110b565b93506113bc6020860161110b565b925060408501359150606085013567ffffffffffffffff8111156113df57600080fd5b8501601f810187136113f057600080fd5b6113ff87823560208401611284565b91505092959194509250565b6000806040838503121561141e57600080fd5b6114278361110b565b91506114356020840161110b565b90509250929050565b600181811c9082168061145257607f821691505b60208210810361147257634e487b7160e01b600052602260045260246000fd5b50919050565b634e487b7160e01b600052601160045260246000fd5b808202811582820484141761034457610344611478565b6000826114c257634e487b7160e01b600052601260045260246000fd5b500490565b8082018082111561034457610344611478565b6000600182016114ec576114ec611478565b5060010190565b601f82111561058257600081815260208120601f850160051c8101602086101561151a5750805b601f850160051c820191505b81811015610cb857828155600101611526565b815167ffffffffffffffff8111156115535761155361126e565b61156781611561845461143e565b846114f3565b602080601f83116001811461159c57600084156115845750858301515b600019600386901b1c1916600185901b178555610cb8565b600085815260208120601f198616915b828110156115cb578886015182559484019460019091019084016115ac565b50858210156115e95787850151600019600388901b60f8161c191681555b5050505050600190811b01905550565b6000835161160b81846020880161116a565b83519083019061161f81836020880161116a565b64173539b7b760d91b9101908152600501949350505050565b6001600160a01b038581168252841660208201526040810183905260806060820181905260009061166b9083018461118e565b9695505050505050565b60006020828403121561168757600080fd5b81516107e4816110d856fea26469706673582212204f5255b83c912936c8592348ba67d9bdb9d802f9c3087e6c27c4bbdb107fcf9964736f6c63430008140033",
  "linkReferences": {},
  "deployedLinkReferences": {}
}