{
  "_format": "hh-sol-artifact-1",
  "contractName": "FlowNFT",
  "sourceName": "contracts/NFT.sol",
  "abi": [
    {
      "inputs": [
        {
          "internalType": "string",
          "name": "_name",
          "type": "string"
        },
        {
          "internalType": "string",
          "name": "_symbol",
          "type": "string"
        },
        {
          "internalType": "uint256",
          "name": "_maxSupply",
          "type": "uint256"
        },
        {
          "internalType": "uint256",
          "name": "_maxPerWallet",
          "type": "uint256"
        },
        {
          "internalType": "uint256",
          "name": "_ownerReserve",
          "type": "uint256"
        },
        {
          "internalType": "address",
          "name": "royaltyReceiver",
          "type": "address"
        },
        {
          "internalType": "uint96",
          "name": "royaltyFee",
          "type": "uint96"
        }
      ],
      "stateMutability": "nonpayable",
      "type": "constructor"
    },
    {
      "inputs": [
        {
          "internalType": "uint256",
          "name": "numerator",
          "type": "uint256"
        },
        {
          "internalType": "uint256",
          "name": "denominator",
          "type": "uint256"
        }
      ],
      "name": "ERC2981InvalidDefaultRoyalty",
      "type": "error"
    },
    {
      "inputs": [
        {
          "internalType": "address",
          "name": "receiver",
          "type": "address"
        }
      ],
      "name": "ERC2981InvalidDefaultRoyaltyReceiver",
      "type": "error"
    },
    {
      "inputs": [
        {
          "internalType": "uint256",
          "name": "tokenId",
          "type": "uint256"
        },
        {
          "internalType": "uint256",
          "name": "numerator",
          "type": "uint256"
        },
        {
          "internalType": "uint256",
          "name": "denominator",
          "type": "uint256"
        }
      ],
      "name": "ERC2981InvalidTokenRoyalty",
      "type": "error"
    },
    {
      "inputs": [
        {
          "internalType": "uint256",
          "name": "tokenId",
          "type": "uint256"
        },
        {
          "internalType": "address",
          "name": "receiver",
          "type": "address"
        }
      ],
      "name": "ERC2981InvalidTokenRoyaltyReceiver",
      "type": "error"
    },
    {
      "inputs": [
        {
          "internalType": "address",
          "name": "sender",
          "type": "address"
        },
        {
          "internalType": "uint256",
          "name": "tokenId",
          "type": "uint256"
        },
        {
          "internalType": "address",
          "name": "owner",
          "type": "address"
        }
      ],
      "name": "ERC721IncorrectOwner",
      "type": "error"
    },
    {
      "inputs": [
        {
          "internalType": "address",
          "name": "operator",
          "type": "address"
        },
        {
          "internalType": "uint256",
          "name": "tokenId",
          "type": "uint256"
        }
      ],
      "name": "ERC721InsufficientApproval",
      "type": "error"
    },
    {
      "inputs": [
        {
          "internalType": "address",
          "name": "approver",
          "type": "address"
        }
      ],
      "name": "ERC721InvalidApprover",
      "type": "error"
    },
    {
      "inputs": [
        {
          "internalType": "address",
          "name": "operator",
          "type": "address"
        }
      ],
      "name": "ERC721InvalidOperator",
      "type": "error"
    },
    {
      "inputs": [
        {
          "internalType": "address",
          "name": "owner",
          "type": "address"
        }
      ],
      "name": "ERC721InvalidOwner",
      "type": "error"
    },
    {
      "inputs": [
        {
          "internalType": "address",
          "name": "receiver",
          "type": "address"
        }
      ],
      "name": "ERC721InvalidReceiver",
      "type": "error"
    },
    {
      "inputs": [
        {
          "internalType": "address",
          "name": "sender",
          "type": "address"
        }
      ],
      "name": "ERC721InvalidSender",
      "type": "error"
    },
    {
      "inputs": [
        {
          "internalType": "uint256",
          "name": "tokenId",
          "type": "uint256"
        }
      ],
      "name": "ERC721NonexistentToken",
      "type": "error"
    },
    {
      "inputs": [
        {
          "internalType": "address",
          "name": "owner",
          "type": "address"
        }
      ],
      "name": "OwnableInvalidOwner",
      "type": "error"
    },
    {
      "inputs": [
        {
          "internalType": "address",
          "name": "account",
          "type": "address"
        }
      ],
      "name": "OwnableUnauthorizedAccount",
      "type": "error"
    },
    {
      "inputs": [],
      "name": "ReentrancyGuardReentrantCall",
      "type": "error"
    },
    {
      "anonymous": false,
      "inputs": [
        {
          "indexed": true,
          "internalType": "address",
          "name": "owner",
          "type": "address"
        },
        {
          "indexed": true,
          "internalType": "address",
          "name": "approved",
          "type": "address"
        },
        {
          "indexed": true,
          "internalType": "uint256",
          "name": "tokenId",
          "type": "uint256"
        }
      ],
      "name": "Approval",
      "type": "event"
    },
    {
      "anonymous": false,
      "inputs": [
        {
          "indexed": true,
          "internalType": "address",
          "name": "owner",
          "type": "address"
        },
        {
          "indexed": true,
          "internalType": "address",
          "name": "operator",
          "type": "address"
        },
        {
          "indexed": false,
          "internalType": "bool",
          "name": "approved",
          "type": "bool"
        }
      ],
      "name": "ApprovalForAll",
      "type": "event"
    },
    {
      "anonymous": false,
      "inputs": [
        {
          "indexed": false,
          "internalType": "uint256",
          "name": "_fromTokenId",
          "type": "uint256"
        },
        {
          "indexed": false,
          "internalType": "uint256",
          "name": "_toTokenId",
          "type": "uint256"
        }
      ],
      "name": "BatchMetadataUpdate",
      "type": "event"
    },
    {
      "anonymous": false,
      "inputs": [
        {
          "indexed": true,
          "internalType": "address",
          "name": "minter",
          "type": "address"
        },
        {
          "indexed": false,
          "internalType": "uint256",
          "name": "quantity",
          "type": "uint256"
        }
      ],
      "name": "BatchMint",
      "type": "event"
    },
    {
      "anonymous": false,
      "inputs": [
        {
          "indexed": false,
          "internalType": "uint256",
          "name": "_tokenId",
          "type": "uint256"
        }
      ],
      "name": "MetadataUpdate",
      "type": "event"
    },
    {
      "anonymous": false,
      "inputs": [
        {
          "indexed": true,
          "internalType": "address",
          "name": "minter",
          "type": "address"
        },
        {
          "indexed": true,
          "internalType": "uint256",
          "name": "tokenId",
          "type": "uint256"
        },
        {
          "indexed": false,
          "internalType": "string",
          "name": "tokenURI",
          "type": "string"
        }
      ],
      "name": "Minted",
      "type": "event"
    },
    {
      "anonymous": false,
      "inputs": [
        {
          "indexed": true,
          "internalType": "address",
          "name": "previousOwner",
          "type": "address"
        },
        {
          "indexed": true,
          "internalType": "address",
          "name": "newOwner",
          "type": "address"
        }
      ],
      "name": "OwnershipTransferred",
      "type": "event"
    },
    {
      "anonymous": false,
      "inputs": [
        {
          "indexed": true,
          "internalType": "address",
          "name": "from",
          "type": "address"
        },
        {
          "indexed": true,
          "internalType": "address",
          "name": "to",
          "type": "address"
        },
        {
          "indexed": true,
          "internalType": "uint256",
          "name": "tokenId",
          "type": "uint256"
        }
      ],
      "name": "Transfer",
      "type": "event"
    },
    {
      "inputs": [
        {
          "internalType": "address",
          "name": "to",
          "type": "address"
        },
        {
          "internalType": "uint256",
          "name": "tokenId",
          "type": "uint256"
        }
      ],
      "name": "approve",
      "outputs": [],
      "stateMutability": "nonpayable",
      "type": "function"
    },
    {
      "inputs": [
        {
          "internalType": "address",
          "name": "owner",
          "type": "address"
        }
      ],
      "name": "balanceOf",
      "outputs": [
        {
          "internalType": "uint256",
          "name": "",
          "type": "uint256"
        }
      ],
      "stateMutability": "view",
      "type": "function"
    },
    {
      "inputs": [
        {
          "internalType": "uint256",
          "name": "tokenId",
          "type": "uint256"
        }
      ],
      "name": "getApproved",
      "outputs": [
        {
          "internalType": "address",
          "name": "",
          "type": "address"
        }
      ],
      "stateMutability": "view",
      "type": "function"
    },
    {
      "inputs": [
        {
          "internalType": "address",
          "name": "owner",
          "type": "address"
        },
        {
          "internalType": "address",
          "name": "operator",
          "type": "address"
        }
      ],
      "name": "isApprovedForAll",
      "outputs": [
        {
          "internalType": "bool",
          "name": "",
          "type": "bool"
        }
      ],
      "stateMutability": "view",
      "type": "function"
    },
    {
      "inputs": [],
      "name": "maxPerWallet",
      "outputs": [
        {
          "internalType": "uint256",
          "name": "",
          "type": "uint256"
        }
      ],
      "stateMutability": "view",
      "type": "function"
    },
    {
      "inputs": [],
      "name": "maxSupply",
      "outputs": [
        {
          "internalType": "uint256",
          "name": "",
          "type": "uint256"
        }
      ],
      "stateMutability": "view",
      "type": "function"
    },
    {
      "inputs": [
        {
          "internalType": "string",
          "name": "tokenURI_",
          "type": "string"
        }
      ],
      "name": "mint",
      "outputs": [],
      "stateMutability": "payable",
      "type": "function"
    },
    {
      "inputs": [
        {
          "internalType": "uint256",
          "name": "quantity",
          "type": "uint256"
        }
      ],
      "name": "mintBatch",
      "outputs": [],
      "stateMutability": "payable",
      "type": "function"
    },
    {
      "inputs": [],
      "name": "mintPrice",
      "outputs": [
        {
          "internalType": "uint256",
          "name": "",
          "type": "uint256"
        }
      ],
      "stateMutability": "view",
      "type": "function"
    },
    {
      "inputs": [],
      "name": "name",
      "outputs": [
        {
          "internalType": "string",
          "name": "",
          "type": "string"
        }
      ],
      "stateMutability": "view",
      "type": "function"
    },
    {
      "inputs": [],
      "name": "owner",
      "outputs": [
        {
          "internalType": "address",
          "name": "",
          "type": "address"
        }
      ],
      "stateMutability": "view",
      "type": "function"
    },
    {
      "inputs": [
        {
          "internalType": "address",
          "name": "to",
          "type": "address"
        },
        {
          "internalType": "string",
          "name": "tokenURI_",
          "type": "string"
        }
      ],
      "name": "ownerMint",
      "outputs": [],
      "stateMutability": "nonpayable",
      "type": "function"
    },
    {
      "inputs": [
        {
          "internalType": "address",
          "name": "to",
          "type": "address"
        },
        {
          "internalType": "uint256",
          "name": "quantity",
          "type": "uint256"
        }
      ],
      "name": "ownerMintBatch",
      "outputs": [],
      "stateMutability": "nonpayable",
      "type": "function"
    },
    {
      "inputs": [
        {
          "internalType": "uint256",
          "name": "tokenId",
          "type": "uint256"
        }
      ],
      "name": "ownerOf",
      "outputs": [
        {
          "internalType": "address",
          "name": "",
          "type": "address"
        }
      ],
      "stateMutability": "view",
      "type": "function"
    },
    {
      "inputs": [],
      "name": "ownerReserve",
      "outputs": [
        {
          "internalType": "uint256",
          "name": "",
          "type": "uint256"
        }
      ],
      "stateMutability": "view",
      "type": "function"
    },
    {
      "inputs": [],
      "name": "renounceOwnership",
      "outputs": [],
      "stateMutability": "nonpayable",
      "type": "function"
    },
    {
      "inputs": [
        {
          "internalType": "uint256",
          "name": "tokenId",
          "type": "uint256"
        },
        {
          "internalType": "uint256",
          "name": "salePrice",
          "type": "uint256"
        }
      ],
      "name": "royaltyInfo",
      "outputs": [
        {
          "internalType": "address",
          "name": "receiver",
          "type": "address"
        },
        {
          "internalType": "uint256",
          "name": "amount",
          "type": "uint256"
        }
      ],
      "stateMutability": "view",
      "type": "function"
    },
    {
      "inputs": [
        {
          "internalType": "address",
          "name": "from",
          "type": "address"
        },
        {
          "internalType": "address",
          "name": "to",
          "type": "address"
        },
        {
          "internalType": "uint256",
          "name": "tokenId",
          "type": "uint256"
        }
      ],
      "name": "safeTransferFrom",
      "outputs": [],
      "stateMutability": "nonpayable",
      "type": "function"
    },
    {
      "inputs": [
        {
          "internalType": "address",
          "name": "from",
          "type": "address"
        },
        {
          "internalType": "address",
          "name": "to",
          "type": "address"
        },
        {
          "internalType": "uint256",
          "name": "tokenId",
          "type": "uint256"
        },
        {
          "internalType": "bytes",
          "name": "data",
          "type": "bytes"
        }
      ],
      "name": "safeTransferFrom",
      "outputs": [],
      "stateMutability": "nonpayable",
      "type": "function"
    },
    {
      "inputs": [],
      "name": "saleActive",
      "outputs": [
        {
          "internalType": "bool",
          "name": "",
          "type": "bool"
        }
      ],
      "stateMutability": "view",
      "type": "function"
    },
    {
      "inputs": [
        {
          "internalType": "address",
          "name": "operator",
          "type": "address"
        },
        {
          "internalType": "bool",
          "name": "approved",
          "type": "bool"
        }
      ],
      "name": "setApprovalForAll",
      "outputs": [],
      "stateMutability": "nonpayable",
      "type": "function"
    },
    {
      "inputs": [
        {
          "internalType": "address",
          "name": "receiver",
          "type": "address"
        },
        {
          "internalType": "uint96",
          "name": "fee",
          "type": "uint96"
        }
      ],
      "name": "setDefaultRoyalty",
      "outputs": [],
      "stateMutability": "nonpayable",
      "type": "function"
    },
    {
      "inputs": [
        {
          "internalType": "uint256",
          "name": "newLimit",
          "type": "uint256"
        }
      ],
      "name": "setMaxPerWallet",
      "outputs": [],
      "stateMutability": "nonpayable",
      "type": "function"
    },
    {
      "inputs": [
        {
          "internalType": "uint256",
          "name": "newPrice",
          "type": "uint256"
        }
      ],
      "name": "setMintPrice",
      "outputs": [],
      "stateMutability": "nonpayable",
      "type": "function"
    },
    {
      "inputs": [
        {
          "internalType": "uint256",
          "name": "newReserve",
          "type": "uint256"
        }
      ],
      "name": "setOwnerReserve",
      "outputs": [],
      "stateMutability": "nonpayable",
      "type": "function"
    },
    {
      "inputs": [
        {
          "internalType": "uint256",
          "name": "tokenId",
          "type": "uint256"
        },
        {
          "internalType": "string",
          "name": "tokenURI_",
          "type": "string"
        }
      ],
      "name": "setTokenURI",
      "outputs": [],
      "stateMutability": "nonpayable",
      "type": "function"
    },
    {
      "inputs": [
        {
          "internalType": "uint256[]",
          "name": "tokenIds",
          "type": "uint256[]"
        },
        {
          "internalType": "string[]",
          "name": "tokenURIs",
          "type": "string[]"
        }
      ],
      "name": "setTokenURIBatch",
      "outputs": [],
      "stateMutability": "nonpayable",
      "type": "function"
    },
    {
      "inputs": [
        {
          "internalType": "bytes4",
          "name": "interfaceId",
          "type": "bytes4"
        }
      ],
      "name": "supportsInterface",
      "outputs": [
        {
          "internalType": "bool",
          "name": "",
          "type": "bool"
        }
      ],
      "stateMutability": "view",
      "type": "function"
    },
    {
      "inputs": [],
      "name": "symbol",
      "outputs": [
        {
          "internalType": "string",
          "name": "",
          "type": "string"
        }
      ],
      "stateMutability": "view",
      "type": "function"
    },
    {
      "inputs": [],
      "name": "toggleSale",
      "outputs": [],
      "stateMutability": "nonpayable",
      "type": "function"
    },
    {
      "inputs": [
        {
          "internalType": "uint256",
          "name": "tokenId",
          "type": "uint256"
        }
      ],
      "name": "tokenURI",
      "outputs": [
        {
          "internalType": "string",
          "name": "",
          "type": "string"
        }
      ],
      "stateMutability": "view",
      "type": "function"
    },
    {
      "inputs": [],
      "name": "totalMinted",
      "outputs": [
        {
          "internalType": "uint256",
          "name": "",
          "type": "uint256"
        }
      ],
      "stateMutability": "view",
      "type": "function"
    },
    {
      "inputs": [
        {
          "internalType": "address",
          "name": "from",
          "type": "address"
        },
        {
          "internalType": "address",
          "name": "to",
          "type": "address"
        },
        {
          "internalType": "uint256",
          "name": "tokenId",
          "type": "uint256"
        }
      ],
      "name": "transferFrom",
      "outputs": [],
      "stateMutability": "nonpayable",
      "type": "function"
    },
    {
      "inputs": [
        {
          "internalType": "address",
          "name": "newOwner",
          "type": "address"
        }
      ],
      "name": "transferOwnership",
      "outputs": [],
      "stateMutability": "nonpayable",
      "type": "function"
    },
    {
      "inputs": [
        {
          "internalType": "address payable",
          "name": "to",
          "type": "address"
        }
      ],
      "name": "withdraw",
      "outputs": [],
      "stateMutability": "nonpayable",
      "type": "function"
    }
  ],
  "bytecode": "0x60a0604052683635c9adc5dea00000600b55600d805460ff191690556000600e553480156200002d57600080fd5b5060405162002c4938038062002c4983398101604081905262000050916200029a565b3387876000620000618382620003f5565b506001620000708282620003f5565b5050506001600160a01b038116620000a357604051631e4fbdf760e01b8152600060048201526024015b60405180910390fd5b620000ae81620000dc565b5060016008556080859052600c849055600f839055620000cf82826200012e565b50505050505050620004c1565b600780546001600160a01b038381166001600160a01b0319831681179093556040519116919082907f8be0079c531659141344cd1fd0a4f28419497f9722a3daafe3b4186f6b6457e090600090a35050565b6127106001600160601b0382168110156200016f57604051636f483d0960e01b81526001600160601b0383166004820152602481018290526044016200009a565b6001600160a01b0383166200019b57604051635b6cc80560e11b8152600060048201526024016200009a565b50604080518082019091526001600160a01b039092168083526001600160601b039091166020909201829052600160a01b90910217600955565b634e487b7160e01b600052604160045260246000fd5b600082601f830112620001fd57600080fd5b81516001600160401b03808211156200021a576200021a620001d5565b604051601f8301601f19908116603f01168101908282118183101715620002455762000245620001d5565b816040528381526020925086838588010111156200026257600080fd5b600091505b8382101562000286578582018301518183018401529082019062000267565b600093810190920192909252949350505050565b600080600080600080600060e0888a031215620002b657600080fd5b87516001600160401b0380821115620002ce57600080fd5b620002dc8b838c01620001eb565b985060208a0151915080821115620002f357600080fd5b50620003028a828b01620001eb565b60408a015160608b015160808c015160a08d0151939a509198509650945090506001600160a01b03811681146200033857600080fd5b60c08901519092506001600160601b03811681146200035657600080fd5b8091505092959891949750929550565b600181811c908216806200037b57607f821691505b6020821081036200039c57634e487b7160e01b600052602260045260246000fd5b50919050565b601f821115620003f057600081815260208120601f850160051c81016020861015620003cb5750805b601f850160051c820191505b81811015620003ec57828155600101620003d7565b5050505b505050565b81516001600160401b03811115620004115762000411620001d5565b620004298162000422845462000366565b84620003a2565b602080601f831160018114620004615760008415620004485750858301515b600019600386901b1c1916600185901b178555620003ec565b600085815260208120601f198616915b82811015620004925788860151825594840194600190910190840162000471565b5085821015620004b15787850151600019600388901b60f8161c191681555b5050505050600190811b01905550565b608051612750620004f960003960008181610585015281816108a101528181610ba2015281816111e4015261143801526127506000f3fe6080604052600436106102045760003560e01c806368428a1b11610118578063c87b56dd116100a0578063e268e4d31161006f578063e268e4d3146105d0578063e985e9c5146105f0578063ed474c3514610610578063f2fde38b14610630578063f4a0a5281461065057600080fd5b8063c87b56dd14610553578063d5abeb0114610573578063d85d3d27146105a7578063dd05814d146105ba57600080fd5b80638da5cb5b116100e75780638da5cb5b146104ca57806395d89b41146104e8578063a22cb465146104fd578063a2309ff81461051d578063b88d4fde1461053357600080fd5b806368428a1b1461046657806370a0823114610480578063715018a6146104a05780637d8966e4146104b557600080fd5b806323b872dd1161019b578063453c23101161016a578063453c2310146103cc5780634bb99351146103f057806351cff8d9146104105780636352211e146104305780636817c76c1461045057600080fd5b806323b872dd1461032d5780632a55205a1461034d57806341d5b8031461038c57806342842e0e146103ac57600080fd5b8063095ea7b3116101d7578063095ea7b3146102ba578063162094c4146102da57806316a57f91146102fa57806320e409b41461031a57600080fd5b806301ffc9a71461020957806304634d8d1461023e57806306fdde0314610260578063081812fc14610282575b600080fd5b34801561021557600080fd5b50610229610224366004611f6d565b610670565b60405190151581526020015b60405180910390f35b34801561024a57600080fd5b5061025e610259366004611f9f565b610681565b005b34801561026c57600080fd5b50610275610697565b6040516102359190612034565b34801561028e57600080fd5b506102a261029d366004612047565b610729565b6040516001600160a01b039091168152602001610235565b3480156102c657600080fd5b5061025e6102d5366004612060565b610752565b3480156102e657600080fd5b5061025e6102f53660046120ce565b61075d565b34801561030657600080fd5b5061025e610315366004612047565b610807565b61025e610328366004612047565b610814565b34801561033957600080fd5b5061025e61034836600461211a565b610a47565b34801561035957600080fd5b5061036d61036836600461215b565b610ad2565b604080516001600160a01b039093168352602083019190915201610235565b34801561039857600080fd5b5061025e6103a736600461217d565b610b59565b3480156103b857600080fd5b5061025e6103c736600461211a565b610d1c565b3480156103d857600080fd5b506103e2600c5481565b604051908152602001610235565b3480156103fc57600080fd5b5061025e61040b3660046121fe565b610d37565b34801561041c57600080fd5b5061025e61042b36600461226a565b610ea0565b34801561043c57600080fd5b506102a261044b366004612047565b610f95565b34801561045c57600080fd5b506103e2600b5481565b34801561047257600080fd5b50600d546102299060ff1681565b34801561048c57600080fd5b506103e261049b36600461226a565b610fa0565b3480156104ac57600080fd5b5061025e610fe8565b3480156104c157600080fd5b5061025e610ffc565b3480156104d657600080fd5b506007546001600160a01b03166102a2565b3480156104f457600080fd5b50610275611018565b34801561050957600080fd5b5061025e610518366004612287565b611027565b34801561052957600080fd5b506103e2600e5481565b34801561053f57600080fd5b5061025e61054e3660046122d0565b611032565b34801561055f57600080fd5b5061027561056e366004612047565b61104a565b34801561057f57600080fd5b506103e27f000000000000000000000000000000000000000000000000000000000000000081565b61025e6105b53660046123b0565b61115b565b3480156105c657600080fd5b506103e2600f5481565b3480156105dc57600080fd5b5061025e6105eb366004612047565b6113b0565b3480156105fc57600080fd5b5061022961060b3660046123f2565b6113bd565b34801561061c57600080fd5b5061025e61062b366004612060565b6113eb565b34801561063c57600080fd5b5061025e61064b36600461226a565b61158d565b34801561065c57600080fd5b5061025e61066b366004612047565b6115c8565b600061067b826115d5565b92915050565b6106896115fa565b6106938282611627565b5050565b6060600080546106a690612420565b80601f01602080910402602001604051908101604052809291908181526020018280546106d290612420565b801561071f5780601f106106f45761010080835404028352916020019161071f565b820191906000526020600020905b81548152906001019060200180831161070257829003601f168201915b5050505050905090565b6000610734826116ca565b506000828152600460205260409020546001600160a01b031661067b565b610693828233611703565b6107656115fa565b6000838152600260205260409020546001600160a01b03166107c25760405162461bcd60e51b81526020600482015260116024820152702737b732bc34b9ba32b73a103a37b5b2b760791b60448201526064015b60405180910390fd5b6108028383838080601f01602080910402602001604051908101604052809392919081815260200183838082843760009201919091525061171092505050565b505050565b61080f6115fa565b600f55565b61081c611760565b600d5460ff1661085c5760405162461bcd60e51b815260206004820152600b60248201526a29b0b6329034b99027a32360a91b60448201526064016107b9565b6000811161089f5760405162461bcd60e51b815260206004820152601060248201526f496e76616c6964207175616e7469747960801b60448201526064016107b9565b7f0000000000000000000000000000000000000000000000000000000000000000600f5482600e546108d19190612470565b6108db9190612470565b111561091a5760405162461bcd60e51b815260206004820152600e60248201526d4578636565647320737570706c7960901b60448201526064016107b9565b80600b546109289190612483565b34146109695760405162461bcd60e51b815260206004820152601060248201526f15dc9bdb99c811551208185b5bdd5b9d60821b60448201526064016107b9565b600c548161097633610fa0565b6109809190612470565b11156109c65760405162461bcd60e51b815260206004820152601560248201527415d85b1b195d081b1a5b5a5d08195e18d959591959605a1b60448201526064016107b9565b60005b81811015610a0457600e80549060006109e18361249a565b91905055506109f233600e5461178a565b806109fc8161249a565b9150506109c9565b5060405181815233907f4b6dcabdeaeb0ec6121e2e093c11a74bd84844268dc1131fd8ba3b363a82d7e89060200160405180910390a2610a446001600855565b50565b6001600160a01b038216610a7157604051633250574960e11b8152600060048201526024016107b9565b6000610a7e8383336117a4565b9050836001600160a01b0316816001600160a01b031614610acc576040516364283d7b60e01b81526001600160a01b03808616600483015260248201849052821660448201526064016107b9565b50505050565b6000828152600a6020526040812080548291906001600160a01b03811690600160a01b90046001600160601b031681610b265750506009546001600160a01b03811690600160a01b90046001600160601b03165b6000612710610b3e6001600160601b03841689612483565b610b4891906124b3565b9295509193505050505b9250929050565b610b616115fa565b80610ba05760405162461bcd60e51b815260206004820152600f60248201526e456d70747920746f6b656e2055524960881b60448201526064016107b9565b7f0000000000000000000000000000000000000000000000000000000000000000600e546001610bd09190612470565b1115610c135760405162461bcd60e51b815260206004820152601260248201527145786365656473206d617820737570706c7960701b60448201526064016107b9565b6001600f541015610c5b5760405162461bcd60e51b81526020600482015260126024820152714e6f7420656e6f756768207265736572766560701b60448201526064016107b9565b600f8054906000610c6b836124d5565b9091555050600e8054906000610c808361249a565b9091555050600e54610c92848261178a565b610cd28184848080601f01602080910402602001604051908101604052809392919081815260200183838082843760009201919091525061171092505050565b80846001600160a01b03167fe7cd4ce7f2a465edc730269a1305e8a48bad821e8fb7e152ec413829c01a53c48585604051610d0e9291906124ec565b60405180910390a350505050565b61080283838360405180602001604052806000815250611032565b610d3f6115fa565b828114610d7f5760405162461bcd60e51b815260206004820152600e60248201526d082e4e4c2f240dad2e6dac2e8c6d60931b60448201526064016107b9565b60005b83811015610e99576000610dc3868684818110610da157610da161251b565b905060200201356000908152600260205260409020546001600160a01b031690565b6001600160a01b031603610e0d5760405162461bcd60e51b81526020600482015260116024820152702737b732bc34b9ba32b73a103a37b5b2b760791b60448201526064016107b9565b610e87858583818110610e2257610e2261251b565b90506020020135848484818110610e3b57610e3b61251b565b9050602002810190610e4d9190612531565b8080601f01602080910402602001604051908101604052809392919081815260200183838082843760009201919091525061171092505050565b80610e918161249a565b915050610d82565b5050505050565b610ea86115fa565b610eb0611760565b6001600160a01b038116610ef55760405162461bcd60e51b815260206004820152600c60248201526b5a65726f206164647265737360a01b60448201526064016107b9565b6000816001600160a01b03164760405160006040518083038185875af1925050503d8060008114610f42576040519150601f19603f3d011682016040523d82523d6000602084013e610f47565b606091505b5050905080610f8a5760405162461bcd60e51b815260206004820152600f60248201526e15da5d1a191c985dc819985a5b1959608a1b60448201526064016107b9565b50610a446001600855565b600061067b826116ca565b60006001600160a01b038216610fcc576040516322718ad960e21b8152600060048201526024016107b9565b506001600160a01b031660009081526003602052604090205490565b610ff06115fa565b610ffa600061189d565b565b6110046115fa565b600d805460ff19811660ff90911615179055565b6060600180546106a690612420565b6106933383836118ef565b61103d848484610a47565b610acc338585858561198e565b6060611055826116ca565b506000828152600660205260408120805461106f90612420565b80601f016020809104026020016040519081016040528092919081815260200182805461109b90612420565b80156110e85780601f106110bd576101008083540402835291602001916110e8565b820191906000526020600020905b8154815290600101906020018083116110cb57829003601f168201915b50505050509050600061110660408051602081019091526000815290565b90508051600003611118575092915050565b81511561114a578082604051602001611132929190612578565b60405160208183030381529060405292505050919050565b61115384611ab8565b949350505050565b611163611760565b600d5460ff166111a35760405162461bcd60e51b815260206004820152600b60248201526a29b0b6329034b99027a32360a91b60448201526064016107b9565b806111e25760405162461bcd60e51b815260206004820152600f60248201526e456d70747920746f6b656e2055524960881b60448201526064016107b9565b7f0000000000000000000000000000000000000000000000000000000000000000600f54600e5460016112159190612470565b61121f9190612470565b111561125e5760405162461bcd60e51b815260206004820152600e60248201526d4578636565647320737570706c7960901b60448201526064016107b9565b600b5434146112a25760405162461bcd60e51b815260206004820152601060248201526f15dc9bdb99c811551208185b5bdd5b9d60821b60448201526064016107b9565b600c546112ae33610fa0565b6112b9906001612470565b11156112ff5760405162461bcd60e51b815260206004820152601560248201527415d85b1b195d081b1a5b5a5d08195e18d959591959605a1b60448201526064016107b9565b600e805490600061130f8361249a565b9091555050600e54611321338261178a565b6113618184848080601f01602080910402602001604051908101604052809392919081815260200183838082843760009201919091525061171092505050565b80336001600160a01b03167fe7cd4ce7f2a465edc730269a1305e8a48bad821e8fb7e152ec413829c01a53c4858560405161139d9291906124ec565b60405180910390a3506106936001600855565b6113b86115fa565b600c55565b6001600160a01b03918216600090815260056020908152604080832093909416825291909152205460ff1690565b6113f36115fa565b600081116114365760405162461bcd60e51b815260206004820152601060248201526f496e76616c6964207175616e7469747960801b60448201526064016107b9565b7f000000000000000000000000000000000000000000000000000000000000000081600e546114659190612470565b11156114a85760405162461bcd60e51b815260206004820152601260248201527145786365656473206d617820737570706c7960701b60448201526064016107b9565b80600f5410156114ef5760405162461bcd60e51b81526020600482015260126024820152714e6f7420656e6f756768207265736572766560701b60448201526064016107b9565b80600f600082825461150191906125a7565b90915550600090505b8181101561154557600e80549060006115228361249a565b919050555061153383600e5461178a565b8061153d8161249a565b91505061150a565b50816001600160a01b03167f4b6dcabdeaeb0ec6121e2e093c11a74bd84844268dc1131fd8ba3b363a82d7e88260405161158191815260200190565b60405180910390a25050565b6115956115fa565b6001600160a01b0381166115bf57604051631e4fbdf760e01b8152600060048201526024016107b9565b610a448161189d565b6115d06115fa565b600b55565b60006001600160e01b0319821663152a902d60e11b148061067b575061067b82611b2d565b6007546001600160a01b03163314610ffa5760405163118cdaa760e01b81523360048201526024016107b9565b6127106001600160601b03821681101561166657604051636f483d0960e01b81526001600160601b0383166004820152602481018290526044016107b9565b6001600160a01b03831661169057604051635b6cc80560e11b8152600060048201526024016107b9565b50604080518082019091526001600160a01b039092168083526001600160601b039091166020909201829052600160a01b90910217600955565b6000818152600260205260408120546001600160a01b03168061067b57604051637e27328960e01b8152600481018490526024016107b9565b6108028383836001611b52565b60008281526006602052604090206117288282612600565b506040518281527ff8e1a15aba9398e019f0b49df1a4fde98ee17ae345cb5f6b5e2c27f5033e8ce79060200160405180910390a15050565b60026008540361178357604051633ee5aeb560e01b815260040160405180910390fd5b6002600855565b610693828260405180602001604052806000815250611c58565b6000828152600260205260408120546001600160a01b03908116908316156117d1576117d1818486611c70565b6001600160a01b0381161561180f576117ee600085600080611b52565b6001600160a01b038116600090815260036020526040902080546000190190555b6001600160a01b0385161561183e576001600160a01b0385166000908152600360205260409020805460010190555b60008481526002602052604080822080546001600160a01b0319166001600160a01b0389811691821790925591518793918516917fddf252ad1be2c89b69c2b068fc378daa952ba7f163c4a11628f55a4df523b3ef91a4949350505050565b600780546001600160a01b038381166001600160a01b0319831681179093556040519116919082907f8be0079c531659141344cd1fd0a4f28419497f9722a3daafe3b4186f6b6457e090600090a35050565b6001600160a01b03821661192157604051630b61174360e31b81526001600160a01b03831660048201526024016107b9565b6001600160a01b03838116600081815260056020908152604080832094871680845294825291829020805460ff191686151590811790915591519182527f17307eab39ab6107e8899845ad3d59bd9653f200f220920489ca2b5937696c31910160405180910390a3505050565b6001600160a01b0383163b15610e9957604051630a85bd0160e11b81526001600160a01b0384169063150b7a02906119d09088908890879087906004016126c0565b6020604051808303816000875af1925050508015611a0b575060408051601f3d908101601f19168201909252611a08918101906126fd565b60015b611a74573d808015611a39576040519150601f19603f3d011682016040523d82523d6000602084013e611a3e565b606091505b508051600003611a6c57604051633250574960e11b81526001600160a01b03851660048201526024016107b9565b805160208201fd5b6001600160e01b03198116630a85bd0160e11b14611ab057604051633250574960e11b81526001600160a01b03851660048201526024016107b9565b505050505050565b6060611ac3826116ca565b506000611adb60408051602081019091526000815290565b90506000815111611afb5760405180602001604052806000815250611b26565b80611b0584611cd4565b604051602001611b16929190612578565b6040516020818303038152906040525b9392505050565b60006001600160e01b03198216632483248360e11b148061067b575061067b82611d67565b8080611b6657506001600160a01b03821615155b15611c28576000611b76846116ca565b90506001600160a01b03831615801590611ba25750826001600160a01b0316816001600160a01b031614155b8015611bb55750611bb381846113bd565b155b15611bde5760405163a9fbf51f60e01b81526001600160a01b03841660048201526024016107b9565b8115611c265783856001600160a01b0316826001600160a01b03167f8c5be1e5ebec7d5bd14f71427d1e84f3dd0314c0f7b2291e5b200ac8c7c3b92560405160405180910390a45b505b5050600090815260046020526040902080546001600160a01b0319166001600160a01b0392909216919091179055565b611c628383611db7565b61080233600085858561198e565b611c7b838383611e1c565b610802576001600160a01b038316611ca957604051637e27328960e01b8152600481018290526024016107b9565b60405163177e802f60e01b81526001600160a01b0383166004820152602481018290526044016107b9565b60606000611ce183611e7f565b600101905060008167ffffffffffffffff811115611d0157611d016122ba565b6040519080825280601f01601f191660200182016040528015611d2b576020820181803683370190505b5090508181016020015b600019016f181899199a1a9b1b9c1cb0b131b232b360811b600a86061a8153600a8504945084611d3557509392505050565b60006001600160e01b031982166380ac58cd60e01b1480611d9857506001600160e01b03198216635b5e139f60e01b145b8061067b57506301ffc9a760e01b6001600160e01b031983161461067b565b6001600160a01b038216611de157604051633250574960e11b8152600060048201526024016107b9565b6000611def838360006117a4565b90506001600160a01b03811615610802576040516339e3563760e11b8152600060048201526024016107b9565b60006001600160a01b038316158015906111535750826001600160a01b0316846001600160a01b03161480611e565750611e5684846113bd565b806111535750506000908152600460205260409020546001600160a01b03908116911614919050565b60008072184f03e93ff9f4daa797ed6e38ed64bf6a1f0160401b8310611ebe5772184f03e93ff9f4daa797ed6e38ed64bf6a1f0160401b830492506040015b6d04ee2d6d415b85acef81000000008310611eea576d04ee2d6d415b85acef8100000000830492506020015b662386f26fc100008310611f0857662386f26fc10000830492506010015b6305f5e1008310611f20576305f5e100830492506008015b6127108310611f3457612710830492506004015b60648310611f46576064830492506002015b600a831061067b5760010192915050565b6001600160e01b031981168114610a4457600080fd5b600060208284031215611f7f57600080fd5b8135611b2681611f57565b6001600160a01b0381168114610a4457600080fd5b60008060408385031215611fb257600080fd5b8235611fbd81611f8a565b915060208301356001600160601b0381168114611fd957600080fd5b809150509250929050565b60005b83811015611fff578181015183820152602001611fe7565b50506000910152565b60008151808452612020816020860160208601611fe4565b601f01601f19169290920160200192915050565b602081526000611b266020830184612008565b60006020828403121561205957600080fd5b5035919050565b6000806040838503121561207357600080fd5b823561207e81611f8a565b946020939093013593505050565b60008083601f84011261209e57600080fd5b50813567ffffffffffffffff8111156120b657600080fd5b602083019150836020828501011115610b5257600080fd5b6000806000604084860312156120e357600080fd5b83359250602084013567ffffffffffffffff81111561210157600080fd5b61210d8682870161208c565b9497909650939450505050565b60008060006060848603121561212f57600080fd5b833561213a81611f8a565b9250602084013561214a81611f8a565b929592945050506040919091013590565b6000806040838503121561216e57600080fd5b50508035926020909101359150565b60008060006040848603121561219257600080fd5b833561219d81611f8a565b9250602084013567ffffffffffffffff81111561210157600080fd5b60008083601f8401126121cb57600080fd5b50813567ffffffffffffffff8111156121e357600080fd5b6020830191508360208260051b8501011115610b5257600080fd5b6000806000806040858703121561221457600080fd5b843567ffffffffffffffff8082111561222c57600080fd5b612238888389016121b9565b9096509450602087013591508082111561225157600080fd5b5061225e878288016121b9565b95989497509550505050565b60006020828403121561227c57600080fd5b8135611b2681611f8a565b6000806040838503121561229a57600080fd5b82356122a581611f8a565b915060208301358015158114611fd957600080fd5b634e487b7160e01b600052604160045260246000fd5b600080600080608085870312156122e657600080fd5b84356122f181611f8a565b9350602085013561230181611f8a565b925060408501359150606085013567ffffffffffffffff8082111561232557600080fd5b818701915087601f83011261233957600080fd5b81358181111561234b5761234b6122ba565b604051601f8201601f19908116603f01168101908382118183101715612373576123736122ba565b816040528281528a602084870101111561238c57600080fd5b82602086016020830137600060208483010152809550505050505092959194509250565b600080602083850312156123c357600080fd5b823567ffffffffffffffff8111156123da57600080fd5b6123e68582860161208c565b90969095509350505050565b6000806040838503121561240557600080fd5b823561241081611f8a565b91506020830135611fd981611f8a565b600181811c9082168061243457607f821691505b60208210810361245457634e487b7160e01b600052602260045260246000fd5b50919050565b634e487b7160e01b600052601160045260246000fd5b8082018082111561067b5761067b61245a565b808202811582820484141761067b5761067b61245a565b6000600182016124ac576124ac61245a565b5060010190565b6000826124d057634e487b7160e01b600052601260045260246000fd5b500490565b6000816124e4576124e461245a565b506000190190565b60208152816020820152818360408301376000818301604090810191909152601f909201601f19160101919050565b634e487b7160e01b600052603260045260246000fd5b6000808335601e1984360301811261254857600080fd5b83018035915067ffffffffffffffff82111561256357600080fd5b602001915036819003821315610b5257600080fd5b6000835161258a818460208801611fe4565b83519083019061259e818360208801611fe4565b01949350505050565b8181038181111561067b5761067b61245a565b601f82111561080257600081815260208120601f850160051c810160208610156125e15750805b601f850160051c820191505b81811015611ab0578281556001016125ed565b815167ffffffffffffffff81111561261a5761261a6122ba565b61262e816126288454612420565b846125ba565b602080601f831160018114612663576000841561264b5750858301515b600019600386901b1c1916600185901b178555611ab0565b600085815260208120601f198616915b8281101561269257888601518255948401946001909101908401612673565b50858210156126b05787850151600019600388901b60f8161c191681555b5050505050600190811b01905550565b6001600160a01b03858116825284166020820152604081018390526080606082018190526000906126f390830184612008565b9695505050505050565b60006020828403121561270f57600080fd5b8151611b2681611f5756fea26469706673582212201b089e9523eda67aa65214fb7c47012f3f89c152fc47cddbddab6652da67ab8f64736f6c63430008140033",
  "linkReferences": {},
  "deployedLinkReferences": {}
}