{
  "_format": "hh-sol-artifact-1",
  "contractName": "Marketplace",
  "sourceName": "contracts/Marketplace.sol",
  "abi": [
    {
      "inputs": [],
      "stateMutability": "nonpayable",
      "type": "constructor"
    },
    {
      "inputs": [],
      "name": "InsufficientPayment",
      "type": "error"
    },
    {
      "inputs": [],
      "name": "InvalidPrice",
      "type": "error"
    },
    {
      "inputs": [],
      "name": "ListingNotActive",
      "type": "error"
    },
    {
      "inputs": [],
      "name": "NotApproved",
      "type": "error"
    },
    {
      "inputs": [],
      "name": "NotTokenOwner",
      "type": "error"
    },
    {
      "inputs": [
        {
          "internalType": "address",
          "name": "owner",
          "type": "address"
        }
      ],
      "name": "OwnableInvalidOwner",
      "type": "error"
    },
    {
      "inputs": [
        {
          "internalType": "address",
          "name": "account",
          "type": "address"
        }
      ],
      "name": "OwnableUnauthorizedAccount",
      "type": "error"
    },
    {
      "inputs": [],
      "name": "ReentrancyGuardReentrantCall",
      "type": "error"
    },
    {
      "inputs": [],
      "name": "TransferFailed",
      "type": "error"
    },
    {
      "inputs": [],
      "name": "UnauthorizedAccess",
      "type": "error"
    },
    {
      "anonymous": false,
      "inputs": [
        {
          "indexed": true,
          "internalType": "address",
          "name": "nftContract",
          "type": "address"
        },
        {
          "indexed": true,
          "internalType": "uint256",
          "name": "tokenId",
          "type": "uint256"
        },
        {
          "indexed": true,
          "internalType": "address",
          "name": "seller",
          "type": "address"
        }
      ],
      "name": "ListingCancelled",
      "type": "event"
    },
    {
      "anonymous": false,
      "inputs": [
        {
          "indexed": true,
          "internalType": "address",
          "name": "nftContract",
          "type": "address"
        },
        {
          "indexed": true,
          "internalType": "uint256",
          "name": "tokenId",
          "type": "uint256"
        },
        {
          "indexed": true,
          "internalType": "address",
          "name": "seller",
          "type": "address"
        },
        {
          "indexed": false,
          "internalType": "uint256",
          "name": "price",
          "type": "uint256"
        },
        {
          "indexed": false,
          "internalType": "uint256",
          "name": "listedAt",
          "type": "uint256"
        }
      ],
      "name": "NFTListed",
      "type": "event"
    },
    {
      "anonymous": false,
      "inputs": [
        {
          "indexed": true,
          "internalType": "address",
          "name": "nftContract",
          "type": "address"
        },
        {
          "indexed": true,
          "internalType": "uint256",
          "name": "tokenId",
          "type": "uint256"
        },
        {
          "indexed": true,
          "internalType": "address",
          "name": "buyer",
          "type": "address"
        },
        {
          "indexed": false,
          "internalType": "address",
          "name": "seller",
          "type": "address"
        },
        {
          "indexed": false,
          "internalType": "uint256",
          "name": "price",
          "type": "uint256"
        },
        {
          "indexed": false,
          "internalType": "uint256",
          "name": "royaltyAmount",
          "type": "uint256"
        },
        {
          "indexed": false,
          "internalType": "uint256",
          "name": "marketplaceFee",
          "type": "uint256"
        }
      ],
      "name": "NFTPurchased",
      "type": "event"
    },
    {
      "anonymous": false,
      "inputs": [
        {
          "indexed": true,
          "internalType": "address",
          "name": "previousOwner",
          "type": "address"
        },
        {
          "indexed": true,
          "internalType": "address",
          "name": "newOwner",
          "type": "address"
        }
      ],
      "name": "OwnershipTransferred",
      "type": "event"
    },
    {
      "inputs": [],
      "name": "BPS_DENOMINATOR",
      "outputs": [
        {
          "internalType": "uint96",
          "name": "",
          "type": "uint96"
        }
      ],
      "stateMutability": "view",
      "type": "function"
    },
    {
      "inputs": [],
      "name": "MARKETPLACE_FEE_BPS",
      "outputs": [
        {
          "internalType": "uint96",
          "name": "",
          "type": "uint96"
        }
      ],
      "stateMutability": "view",
      "type": "function"
    },
    {
      "inputs": [
        {
          "internalType": "address",
          "name": "nftContract",
          "type": "address"
        },
        {
          "internalType": "uint256",
          "name": "tokenId",
          "type": "uint256"
        }
      ],
      "name": "buyNFT",
      "outputs": [],
      "stateMutability": "payable",
      "type": "function"
    },
    {
      "inputs": [
        {
          "internalType": "address",
          "name": "nftContract",
          "type": "address"
        },
        {
          "internalType": "uint256",
          "name": "tokenId",
          "type": "uint256"
        }
      ],
      "name": "cancelListing",
      "outputs": [],
      "stateMutability": "nonpayable",
      "type": "function"
    },
    {
      "inputs": [
        {
          "internalType": "uint256",
          "name": "offset",
          "type": "uint256"
        },
        {
          "internalType": "uint256",
          "name": "limit",
          "type": "uint256"
        }
      ],
      "name": "getAllActiveListings",
      "outputs": [
        {
          "components": [
            {
              "internalType": "address",
              "name": "seller",
              "type": "address"
            },
            {
              "internalType": "address",
              "name": "nftContract",
              "type": "address"
            },
            {
              "internalType": "uint256",
              "name": "tokenId",
              "type": "uint256"
            },
            {
              "internalType": "uint256",
              "name": "price",
              "type": "uint256"
            },
            {
              "internalType": "bool",
              "name": "active",
              "type": "bool"
            },
            {
              "internalType": "uint256",
              "name": "listedAt",
              "type": "uint256"
            }
          ],
          "internalType": "struct Marketplace.Listing[]",
          "name": "",
          "type": "tuple[]"
        }
      ],
      "stateMutability": "view",
      "type": "function"
    },
    {
      "inputs": [
        {
          "internalType": "address",
          "name": "nftContract",
          "type": "address"
        },
        {
          "internalType": "uint256",
          "name": "tokenId",
          "type": "uint256"
        }
      ],
      "name": "getListing",
      "outputs": [
        {
          "components": [
            {
              "internalType": "address",
              "name": "seller",
              "type": "address"
            },
            {
              "internalType": "address",
              "name": "nftContract",
              "type": "address"
            },
            {
              "internalType": "uint256",
              "name": "tokenId",
              "type": "uint256"
            },
            {
              "internalType": "uint256",
              "name": "price",
              "type": "uint256"
            },
            {
              "internalType": "bool",
              "name": "active",
              "type": "bool"
            },
            {
              "internalType": "uint256",
              "name": "listedAt",
              "type": "uint256"
            }
          ],
          "internalType": "struct Marketplace.Listing",
          "name": "",
          "type": "tuple"
        }
      ],
      "stateMutability": "view",
      "type": "function"
    },
    {
      "inputs": [
        {
          "internalType": "address",
          "name": "nftContract",
          "type": "address"
        }
      ],
      "name": "getListingsByCollection",
      "outputs": [
        {
          "components": [
            {
              "internalType": "address",
              "name": "seller",
              "type": "address"
            },
            {
              "internalType": "address",
              "name": "nftContract",
              "type": "address"
            },
            {
              "internalType": "uint256",
              "name": "tokenId",
              "type": "uint256"
            },
            {
              "internalType": "uint256",
              "name": "price",
              "type": "uint256"
            },
            {
              "internalType": "bool",
              "name": "active",
              "type": "bool"
            },
            {
              "internalType": "uint256",
              "name": "listedAt",
              "type": "uint256"
            }
          ],
          "internalType": "struct Marketplace.Listing[]",
          "name": "",
          "type": "tuple[]"
        }
      ],
      "stateMutability": "view",
      "type": "function"
    },
    {
      "inputs": [
        {
          "internalType": "address",
          "name": "seller",
          "type": "address"
        }
      ],
      "name": "getListingsBySeller",
      "outputs": [
        {
          "components": [
            {
              "internalType": "address",
              "name": "seller",
              "type": "address"
            },
            {
              "internalType": "address",
              "name": "nftContract",
              "type": "address"
            },
            {
              "internalType": "uint256",
              "name": "tokenId",
              "type": "uint256"
            },
            {
              "internalType": "uint256",
              "name": "price",
              "type": "uint256"
            },
            {
              "internalType": "bool",
              "name": "active",
              "type": "bool"
            },
            {
              "internalType": "uint256",
              "name": "listedAt",
              "type": "uint256"
            }
          ],
          "internalType": "struct Marketplace.Listing[]",
          "name": "",
          "type": "tuple[]"
        }
      ],
      "stateMutability": "view",
      "type": "function"
    },
    {
      "inputs": [],
      "name": "getTotalActiveListings",
      "outputs": [
        {
          "internalType": "uint256",
          "name": "",
          "type": "uint256"
        }
      ],
      "stateMutability": "view",
      "type": "function"
    },
    {
      "inputs": [
        {
          "internalType": "address",
          "name": "nftContract",
          "type": "address"
        },
        {
          "internalType": "uint256",
          "name": "tokenId",
          "type": "uint256"
        },
        {
          "internalType": "uint256",
          "name": "price",
          "type": "uint256"
        }
      ],
      "name": "listNFT",
      "outputs": [],
      "stateMutability": "nonpayable",
      "type": "function"
    },
    {
      "inputs": [],
      "name": "owner",
      "outputs": [
        {
          "internalType": "address",
          "name": "",
          "type": "address"
        }
      ],
      "stateMutability": "view",
      "type": "function"
    },
    {
      "inputs": [],
      "name": "renounceOwnership",
      "outputs": [],
      "stateMutability": "nonpayable",
      "type": "function"
    },
    {
      "inputs": [
        {
          "internalType": "address",
          "name": "newOwner",
          "type": "address"
        }
      ],
      "name": "transferOwnership",
      "outputs": [],
      "stateMutability": "nonpayable",
      "type": "function"
    }
  ],
  "bytecode": "0x608060405234801561001057600080fd5b506001600055338061003c57604051631e4fbdf760e01b81526000600482015260240160405180910390fd5b61004581610050565b5060016006556100a2565b600180546001600160a01b038381166001600160a01b0319831681179093556040519116919082907f8be0079c531659141344cd1fd0a4f28419497f9722a3daafe3b4186f6b6457e090600090a35050565b6117b3806100b16000396000f3fe6080604052600436106100c25760003560e01c8063a5298c4a1161007f578063b2ddee0611610059578063b2ddee0614610211578063d8cba25114610231578063e1a4521814610251578063f2fde38b1461026757600080fd5b8063a5298c4a146101bb578063a82ba76f146101de578063ad05f1b4146101f157600080fd5b8063286792b3146100c7578063465de68b146100fd578063715018a61461012f57806388700d1c146101465780638da5cb5b14610173578063982a5ab31461019b575b600080fd5b3480156100d357600080fd5b506100e76100e23660046114f7565b610287565b6040516100f49190611560565b60405180910390f35b34801561010957600080fd5b5061011260fa81565b6040516bffffffffffffffffffffffff90911681526020016100f4565b34801561013b57600080fd5b506101446104a0565b005b34801561015257600080fd5b506101666101613660046115c3565b6104b4565b6040516100f491906115ef565b34801561017f57600080fd5b506001546040516001600160a01b0390911681526020016100f4565b3480156101a757600080fd5b506100e76101b63660046115fd565b61052f565b3480156101c757600080fd5b506101d061076e565b6040519081526020016100f4565b6101446101ec3660046115c3565b6107be565b3480156101fd57600080fd5b5061014461020c366004611621565b610be2565b34801561021d57600080fd5b5061014461022c3660046115c3565b61108a565b34801561023d57600080fd5b506100e761024c3660046115fd565b6111bc565b34801561025d57600080fd5b5061011261271081565b34801561027357600080fd5b506101446102823660046115fd565b6113c1565b6060600060015b6006548110156102d25760008181526005602052604090206004015460ff16156102c057816102bc8161166c565b9250505b806102ca8161166c565b91505061028e565b508360006102e08583611685565b905082821061032557604080516000808252602082019092529061031a565b6103076114ad565b8152602001906001900390816102ff5790505b50935050505061049a565b828111156103305750815b600061033c83836116ae565b905060008167ffffffffffffffff81111561035957610359611698565b60405190808252806020026020018201604052801561039257816020015b61037f6114ad565b8152602001906001900390816103775790505b50905060008060015b600654811080156103ab57508482105b1561048f5760008181526005602052604090206004015460ff161561047d578683101580156103d957508583105b1561046f57600081815260056020818152604092839020835160c08101855281546001600160a01b0390811682526001830154169281019290925260028101549382019390935260038301546060820152600483015460ff161515608082015291015460a08201528451859084908110610455576104556116c1565b6020026020010181905250818061046b9061166c565b9250505b826104798161166c565b9350505b806104878161166c565b91505061039b565b509196505050505050505b92915050565b6104a8611404565b6104b26000611431565b565b6104bc6114ad565b506001600160a01b03918216600090815260026020818152604080842094845293815291839020835160c0810185528154861681526001820154909516928501929092528101549183019190915260038101546060830152600481015460ff16151560808301526005015460a082015290565b6001600160a01b038116600090815260036020908152604080832080548251818502810185019093528083526060949383018282801561058e57602002820191906000526020600020905b81548152602001906001019080831161057a575b505050505090506000805b8251811015610617576001600160a01b038516600090815260026020526040812084519091908590849081106105d1576105d16116c1565b60209081029190910181015182528101919091526040016000206004015460ff161561060557816106018161166c565b9250505b8061060f8161166c565b915050610599565b5060008167ffffffffffffffff81111561063357610633611698565b60405190808252806020026020018201604052801561066c57816020015b6106596114ad565b8152602001906001900390816106515790505b5090506000805b8451811015610763576001600160a01b0387166000908152600260205260408120865182908890859081106106aa576106aa6116c1565b6020908102919091018101518252818101929092526040908101600020815160c08101835281546001600160a01b0390811682526001830154169381019390935260028101549183019190915260038101546060830152600481015460ff16158015608084015260059091015460a08301529091506107505780848481518110610736576107366116c1565b6020026020010181905250828061074c9061166c565b9350505b508061075b8161166c565b915050610673565b509095945050505050565b60008060015b6006548110156107b85760008181526005602052604090206004015460ff16156107a657816107a28161166c565b9250505b806107b08161166c565b915050610774565b50919050565b6107c6611483565b6001600160a01b03821660009081526002602090815260408083208484529091529020600481015460ff1661080e576040516366cb03e960e01b815260040160405180910390fd5b80600301543410156108335760405163cd1c886760e01b815260040160405180910390fd5b600381015481546004808401805460ff1916905560405163152a902d60e11b8152908101859052602481018390526001600160a01b03918216916000918291881690632a55205a906044016040805180830381865afa9250505080156108b6575060408051601f3d908101601f191682019092526108b3918101906116d7565b60015b6108c357600091506108c8565b925090505b60006127106108d860fa87611705565b6108e2919061171c565b90506000816108f185886116ae565b6108fb91906116ae565b6040516323b872dd60e01b8152306004820152336024820152604481018a90529091506001600160a01b038a16906323b872dd90606401600060405180830381600087803b15801561094c57600080fd5b505af1158015610960573d6000803e3d6000fd5b5050505060008411801561097c57506001600160a01b03831615155b156109f7576000836001600160a01b03168560405160006040518083038185875af1925050503d80600081146109ce576040519150601f19603f3d011682016040523d82523d6000602084013e6109d3565b606091505b50509050806109f5576040516312171d8360e31b815260040160405180910390fd5b505b8115610a84576000610a116001546001600160a01b031690565b6001600160a01b03168360405160006040518083038185875af1925050503d8060008114610a5b576040519150601f19603f3d011682016040523d82523d6000602084013e610a60565b606091505b5050905080610a82576040516312171d8360e31b815260040160405180910390fd5b505b6000856001600160a01b03168260405160006040518083038185875af1925050503d8060008114610ad1576040519150601f19603f3d011682016040523d82523d6000602084013e610ad6565b606091505b5050905080610af8576040516312171d8360e31b815260040160405180910390fd5b86341115610b7257600033610b0d89346116ae565b604051600081818185875af1925050503d8060008114610b49576040519150601f19603f3d011682016040523d82523d6000602084013e610b4e565b606091505b5050905080610b70576040516312171d8360e31b815260040160405180910390fd5b505b604080516001600160a01b038881168252602082018a90529181018790526060810185905233918b91908d16907faa9ee9b20c9afac9cd249225ffb38ffeeb64a54549d4fccf69aa23eb712e926e9060800160405180910390a45050505050505050610bde6001600055565b5050565b610bea611483565b80600003610c0a5760405162bfc92160e01b815260040160405180910390fd5b6040516331a9108f60e11b815260048101839052839033906001600160a01b03831690636352211e90602401602060405180830381865afa158015610c53573d6000803e3d6000fd5b505050506040513d601f19601f82011682018060405250810190610c77919061173e565b6001600160a01b031614610c9e576040516359dc379f60e01b815260040160405180910390fd5b60405163020604bf60e21b81526004810184905230906001600160a01b0383169063081812fc90602401602060405180830381865afa158015610ce5573d6000803e3d6000fd5b505050506040513d601f19601f82011682018060405250810190610d09919061173e565b6001600160a01b031614158015610d8b575060405163e985e9c560e01b81523360048201523060248201526001600160a01b0382169063e985e9c590604401602060405180830381865afa158015610d65573d6000803e3d6000fd5b505050506040513d601f19601f82011682018060405250810190610d89919061175b565b155b15610da95760405163c19f17a960e01b815260040160405180910390fd5b6040516323b872dd60e01b8152336004820152306024820152604481018490526001600160a01b038216906323b872dd90606401600060405180830381600087803b158015610df757600080fd5b505af1158015610e0b573d6000803e3d6000fd5b505050506040518060c00160405280336001600160a01b03168152602001856001600160a01b031681526020018481526020018381526020016001151581526020014281525060026000866001600160a01b03166001600160a01b03168152602001908152602001600020600085815260200190815260200160002060008201518160000160006101000a8154816001600160a01b0302191690836001600160a01b0316021790555060208201518160010160006101000a8154816001600160a01b0302191690836001600160a01b03160217905550604082015181600201556060820151816003015560808201518160040160006101000a81548160ff02191690831515021790555060a0820151816005015590505060036000856001600160a01b03166001600160a01b03168152602001908152602001600020839080600181540180825580915050600190039060005260206000200160009091909190915055600060066000815480929190610f839061166c565b909155506001600160a01b0386811660008181526002602081815260408084208b85528252808420878552600580845282862082548154908a166001600160a01b0319918216178255600180850154818401805491909c16921691909117909955828601549581019590955560038083015490860155600480830154818701805460ff191660ff90921615159190911790559181015494019390935533808552928252808420805496870181558452928190209094018590558151888152429481019490945293945087927f902e543cfa5843dd67ad404742ff059a71d0a7349e01f2bf410b6f20c6298620910160405180910390a450506110856001600055565b505050565b611092611483565b6001600160a01b03821660009081526002602090815260408083208484529091529020600481015460ff166110da576040516366cb03e960e01b815260040160405180910390fd5b80546001600160a01b0316331461110457604051631a27eac360e11b815260040160405180910390fd5b6004818101805460ff191690556040516323b872dd60e01b81523091810191909152336024820152604481018390526001600160a01b038416906323b872dd90606401600060405180830381600087803b15801561116157600080fd5b505af1158015611175573d6000803e3d6000fd5b50506040513392508491506001600160a01b038616907f8526cb6d400b8a551983c99e6d6fb1775b7a0deeb5d1e39d3ee65bc59e5eac2790600090a450610bde6001600055565b6001600160a01b038116600090815260046020908152604080832080548251818502810185019093528083526060949383018282801561121b57602002820191906000526020600020905b815481526020019060010190808311611207575b505050505090506000805b825181101561128b5760056000848381518110611245576112456116c1565b60209081029190910181015182528101919091526040016000206004015460ff161561127957816112758161166c565b9250505b806112838161166c565b915050611226565b5060008167ffffffffffffffff8111156112a7576112a7611698565b6040519080825280602002602001820160405280156112e057816020015b6112cd6114ad565b8152602001906001900390816112c55790505b5090506000805b845181101561076357600060056000878481518110611308576113086116c1565b6020908102919091018101518252818101929092526040908101600020815160c08101835281546001600160a01b0390811682526001830154169381019390935260028101549183019190915260038101546060830152600481015460ff16158015608084015260059091015460a08301529091506113ae5780848481518110611394576113946116c1565b602002602001018190525082806113aa9061166c565b9350505b50806113b98161166c565b9150506112e7565b6113c9611404565b6001600160a01b0381166113f857604051631e4fbdf760e01b8152600060048201526024015b60405180910390fd5b61140181611431565b50565b6001546001600160a01b031633146104b25760405163118cdaa760e01b81523360048201526024016113ef565b600180546001600160a01b038381166001600160a01b0319831681179093556040519116919082907f8be0079c531659141344cd1fd0a4f28419497f9722a3daafe3b4186f6b6457e090600090a35050565b6002600054036114a657604051633ee5aeb560e01b815260040160405180910390fd5b6002600055565b6040518060c0016040528060006001600160a01b0316815260200160006001600160a01b031681526020016000815260200160008152602001600015158152602001600081525090565b6000806040838503121561150a57600080fd5b50508035926020909101359150565b80516001600160a01b03908116835260208083015190911690830152604080820151908301526060808201519083015260808082015115159083015260a090810151910152565b6020808252825182820181905260009190848201906040850190845b818110156115a25761158f838551611519565b9284019260c0929092019160010161157c565b50909695505050505050565b6001600160a01b038116811461140157600080fd5b600080604083850312156115d657600080fd5b82356115e1816115ae565b946020939093013593505050565b60c0810161049a8284611519565b60006020828403121561160f57600080fd5b813561161a816115ae565b9392505050565b60008060006060848603121561163657600080fd5b8335611641816115ae565b95602085013595506040909401359392505050565b634e487b7160e01b600052601160045260246000fd5b60006001820161167e5761167e611656565b5060010190565b8082018082111561049a5761049a611656565b634e487b7160e01b600052604160045260246000fd5b8181038181111561049a5761049a611656565b634e487b7160e01b600052603260045260246000fd5b600080604083850312156116ea57600080fd5b82516116f5816115ae565b6020939093015192949293505050565b808202811582820484141761049a5761049a611656565b60008261173957634e487b7160e01b600052601260045260246000fd5b500490565b60006020828403121561175057600080fd5b815161161a816115ae565b60006020828403121561176d57600080fd5b8151801515811461161a57600080fdfea26469706673582212208ce81b363bf38306a594f114690e3fb807a745196625a71682d3a93fc7df11c364736f6c63430008140033",
  "linkReferences": {},
  "deployedLinkReferences": {}
}